:020000040001F9
:10F00000605E002015F201001DF201001FF20100F8
:10F0100021F2010023F2010025F2010000000000AE
:10F0200000000000000000000000000027F20100C6
:10F0300029F20100000000002BF201002DF2010076
:10F040005DF601002FF2010035FC01002FF20100F6
:10F050002FF201002FF2010089F30100E1F6010017
:10F060002FF201002FF201002FF201002FF2010018
:10F070002FF201002FF201002FF201002FF2010008
:10F080002FF20100ADF601002FF201002FF2010076
:10F0900049F901002FF2010051F901002FF201009E
:10F0A0002FF201002FF201001DFC01002FF20100E0
:10F0B0002FF201002FF2010000000000000000000C
:10F0C0002FF201002FF201002FF201002FF20100B8
:10F0D0002FF201002FF201002FF2010000000000CA
:10F0E0000000000000000000000000000000000020
:10F0F0000000000000000000000000000000000010
:10F1000000000000000000000000000000000000FF
:10F1100000000000000000000000000000000000EF
:10F1200000000000000000000000000000000000DF
:10F1300000000000000000000000000000000000CF
:10F1400000000000000000000000000000000000BF
:10F1500000000000000000000000000000000000AF
:10F16000000000000000000000000000000000009F
:10F17000000000000000000000000000000000008F
:10F18000000000000000000000000000000000007F
:10F19000000000000000000000000000000000006F
:10F1A000000000000000000000000000000000005F
:10F1B000000000000000000000000000000000004F
:10F1C000000000000000000000000000000000003F
:10F1D000000000000000000000000000000000002F
:10F1E000000000000000000000000000000000001F
:10F1F000000000000000000000000000000000000F
:10F20000DFF80CD000F0AEF800480047D926020025
:10F21000605E00200648804706480047FEE7FEE79C
:10F22000FEE7FEE7FEE7FEE7FEE7FEE7FEE7FEE7B6
:10F2300099F9010001F201002DE9F05F0546002077
:10F2400092469B4688460646814640241BE0284657
:10F2500041464746224600F075F853465A46C01AC2
:10F26000914110D311461846224600F05CF82D1A41
:10F2700067EB01084F4622460120002100F053F8B9
:10F2800017EB00094E41201EA4F10104DFDC4846C3
:10F2900031462A464346BDE8F09F000000487047CB
:10F2A000BC61020040EA01039B0703D009E008C9E2
:10F2B000121F08C0042AFAD203E011F8013B00F83B
:10F2C000013B521EF9D27047D2B201E000F8012B87
:10F2D000491EFBD270470022F6E710B513460A46D6
:10F2E00004461946FFF7F0FF204610BD421C10F8F7
:10F2F000011B0029FBD1801A704730B5044600205D
:10F30000034600E05B1C934203D2E05CCD5C401BF3
:10F31000F8D030BD034611F8012B00F8012B002A6C
:10F32000F9D118467047202A04DB203A00FA02F18E
:10F33000002070479140C2F1200320FA03F31943E3
:10F3400090407047202A04DB203A21FA02F0002185
:10F35000704721FA02F3D040C2F1200291400843E5
:10F3600019467047064C074D06E0E06840F001037F
:10F3700094E8070098471034AC42F6D3FFF744FFF7
:10F38000A0630200C06302002DE9F04F89B04FF086
:10F390000008002008904FF4807007900126002498
:10F3A00013E0079804F0A4FA48B100BF8148006850
:10F3B000304020B1079804F08DFA48EA060876003C
:10F3C0000798001D80B20790641C082CE9D34FF405
:10F3D000BE7004F08DFA50B14FF4BE7004F07AFAAA
:10F3E00048F0004808AA0121002004F059FA08F06A
:10F3F000FF0000B3012600241BE006EA0800B0B1BC
:10F4000000BF6D4850F82400C0F30420074600BF39
:10F41000694850F82400C0F301408146204602F0BC
:10F420000DFB054615B149463846A84700BF760092
:10F43000641C082CE1D308F0004000287ED0002096
:10F4400006900590002505E04FF0FF3004A941F833
:10F4500025006D1C002DF7D000BF00200690002471
:10F460006FE05648005D0390039820F0C0075348B2
:10F470000057401C002863D004A9384603F030FA36
:10F4800000285DD003984FEA901A384602F0DEFA61
:10F49000814602F0D3FA0290029810B9BAF1030F34
:10F4A0004BD1BAF1030F11D1394605A80246CB085A
:10F4B00001F0070112F803C04FF0010E0EFA01FE31
:10F4C0004CEA0E0C02F803C000BF00BF00BF00BF33
:10F4D0004FF0A041084600F5E06151F82710C1F354
:10F4E000014900BF08A9384603F0FAF98346BBF189
:10F4F000000F02D0B9F1020F05D0BBF1000F1BD1F4
:10F50000B9F1030F18D1BAF1030F0FD1B9F1020FFE
:10F5100001D1032000E0022001903846019904F057
:10F520007DF90698401CC0B2069000BF029818B141
:10F5300051463846029A904700BF00E036E000BFCF
:10F54000641C042C8DD3069858B3012703AA01210B
:10F55000002004F0A5F900250AE003A850F82500D2
:10F5600008A951F82510884201D0002702E06D1C3F
:10F57000002DF2D000BF17B10020069010E000254A
:10F580000CE003A850F8250008A941F8250005A8BB
:10F5900050F8250004A941F825006D1C002DF0D07D
:10F5A00000BF069800287FF458AF00BF09B0BDE83F
:10F5B000F08F000004630040106500409438002084
:10F5C00000F01F0201219140024A430942F8231032
:10F5D0007047000080E200E000F01F02012191402E
:10F5E000024A430942F823107047000080E100E01E
:10F5F00000F01F02012191404209920002F1E02235
:10F60000C2F80011704700F01F0201219140420929
:10F61000920002F1E022C2F80011704700F01F02D0
:10F6200001219140024A430942F82310704700002B
:10F6300000E200E010B5002807DA4A07140E054A78
:10F6400000F00F031B1FD45403E04A07130E024AB5
:10F65000135410BD18ED00E000E400E010B54FF4C5
:10F66000807003F0CDF960B14FF4807003F0D1F9F0
:10F67000012003F0D7F901200B494870002002F067
:10F68000EBF94FF4827003F0BBF958B14FF482707C
:10F6900003F0BFF9022003F0C5F901200249887088
:10F6A00002F0DAF910BD00003038002010B500205B
:10F6B0000949086000210948C0F84411C0F8481100
:10F6C000C0F84C1100200549C1F8000102493C393D
:10F6D000086005F095FF10BD401101400010014089
:10F6E000FEB54FF4827004F081FB002837D04FF450
:10F6F000827004F085FB6C4890F82E0018B16A48BF
:10F7000090F82F0058B300208DF80000664840683C
:10F71000019065480189ADF80810C06818B900204B
:10F720006149087412E06048008B5F4948830846CD
:10F73000C06848600846008B08810020C860084601
:10F7400090F82E0010B9002004F07CFB56480168A8
:10F75000684688470020544981F82F0000BF52486E
:10F7600090F82E00002852D04FF4807004F03EFB39
:10F7700000284CD04FF4807004F042FB4A48408B84
:10F78000494991F82D10884216DD4748408B46497B
:10F7900091F82D10401A444948830A4612890B46B5
:10F7A0005B8BD21A0B465B6803EB42000A4692F869
:10F7B0002D1004F0CFFA23E03B48408B3A4991F8F2
:10F7C0002D1088420FD13848C06860B101203649F9
:10F7D00081F82F00002048830A4692F82D10D06847
:10F7E00004F0B8FA0CE03048408B2F4991F82D1006
:10F7F000884205D101202C4981F82F000020488340
:10F800004FF4827004F0FCFA042004F01BFB4FF468
:10F81000887004F0EBFA70B14FF4887004F0F0FADD
:10F8200000202149087402208DF800000846016874
:10F830006846884700BF4FF48A7004F0D7FA38B1A1
:10F840004FF48A7004F0DCFA0020174908742AE0AB
:10F850001548456924E0B5FA85F64FF00040F040C0
:10F860008543B00000F58C74204604F0BFFAB8B1AF
:10F87000204604F0C5FA01208DF80000A4F58C7034
:10F88000C0F3C7008DF80400A4F58C70012121EAB3
:10F8900090018DF80510044801686846884700BF4C
:10F8A000002DD8D100BFFEBDC838002010B500BF64
:10F8B0000348007808B900F0CFF900BF10BD000080
:10F8C000E43D00202DE9F047074688461646C2462B
:10F8D00007EB47011B4800EBC109D9F8140020B120
:10F8E000012811D0022826D11EE0484600F0ECF98C
:10F8F0000546B54201D2002405E034463246514661
:10F90000484600F028FA18E0484600F0DDF90546C0
:10F91000B54201D2284600E0304604462246514610
:10F92000484600F018FA08E032465146484600F0D2
:10F93000D9F9044601E0002400BF00BF2046BDE81D
:10F94000F0870000FC3D002010B505F063FD10BD00
:10F9500070B50B48006880B10948006880470446CC
:10F9600000BF25463DB100BF064A40F2D1112846EE
:10F9700000F056FE00BF00BF01E002F0C1FC70BD08
:10F98000FC320020486302000148024908607047C9
:10F990000090D0031433002010B502F055FA28B1BE
:10F9A0008E480088C0F304208D49086002F0A0FA58
:10F9B00010B18C488C49486702F0B2FA30B18748E0
:10F9C000E0380068C0F342308849086002F0D2FA9B
:10F9D00028B18748006820F080708549086002F0EF
:10F9E000E1FA48B10020834908604FF08041C1F836
:10F9F00010017E49091F086002F0FEFA18B10320C9
:10FA00007A496431086002F00FFB68B105207A4939
:10FA10000860012078497831086000207649083173
:10FA200008603F20091F086002F016FB002855D02F
:10FA30006A48E0300068714908606848E43000684E
:10FA4000091D08606548E8300068091D08606348C2
:10FA5000EC300068091D08606048F0300068091D3E
:10FA600008605E48F4300068091D08605B48F830A3
:10FA700000686249203108605848FC300068091D60
:10FA800008605F480068091D08605D48001D006847
:10FA9000091D08605A4808300068091D0860584868
:10FAA0000C300068091D0860554810300068534943
:10FAB00040310860524814300068091D0860504801
:10FAC00018300068091D08604D481C300068091D89
:10FAD00008604B4820300068091D086002F08AF970
:10FAE00030B13E48CC38006800F04F00454908600E
:10FAF00002F0D4F940B14448006800F0010018B1A8
:10FB00006FF001004049086039487438006840F4DB
:10FB1000700037497439086000BF00BF00BFBFF3F1
:10FB20004F8F00BF00BF00BF00BF00BF00BFBFF3CB
:10FB30006F8F00BF00BF00BF3448006800F0004076
:10FB400028B93248001D006800F00040F0B30120E1
:10FB50002F49086000BF2F4800680028FBD01520FF
:10FB60002A49086000BF2B4800680028FBD01521F7
:10FB70002648001D016000BF264800680028FBD011
:10FB800000202349086000BF224800680028FBD0FD
:10FB900000BF00BF00BF00BF00BFBFF34F8F00BF5B
:10FBA00000BF00BF1248F038006800F4E0601A4956
:10FBB0000843001D0E49F039086000BF00BF00BFB8
:10FBC000BFF34F8F00BF00BF00BF00E002E000BFE7
:10FBD00000BFFDE7FFF7D8FE10BD000024030010B2
:10FBE000403501400DF0ADBA00C007403C05004073
:10FBF000FCED00E00C0100401056004020C5004024
:10FC000024040010E40E0040000400400012001024
:10FC100004E5014000E401400000FA0510B50622A9
:10FC20000249034802F014FC10BD0000BC3800205B
:10FC300000A0014010B50648007F20B104490548E6
:10FC400005F0D9FF03E00249024805F033FF10BD7B
:10FC50009C3800200020004010B5124C022020618A
:10FC6000606111A0A0611349E1614FF4007121624C
:10FC70000021A1626162E1620BA0A0640E49E1640F
:10FC8000102121650021A1656165E1650BA1E01DE1
:10FC9000FFF740FB0AA12046FFF73CFB2020A071A4
:10FCA00010BD0000E43D00205465726D696E616C0A
:10FCB00000000000D43B0020D43D002052545400EA
:10FCC000534547474552000010B501460A69CB68C5
:10FCD0009A4204D88C68641EE41AA01801E0D41A71
:10FCE000601E10BD2DE9F0470446894617464FF0C7
:10FCF000000AE56800BFD4F81080A84503D9A8EB36
:10FD00000500461E04E0A5EB0800401CA1680E1A81
:10FD1000A068401BB04201D9304601E0A068401BFA
:10FD20000646BE4201D2304600E0384606466168CB
:10FD3000481932464946FFF7B5FAB244B144BF1BF1
:10FD40003544A068A84200D10025E560002FD2D13B
:10FD50005046BDE8F0872DE9F04704468946154630
:10FD6000E668A068871BAF4208D9616888192A46EF
:10FD70004946FFF797FA7019E06010E0B8466168ED
:10FD8000881942464946FFF78DFAA5EB070809EBAB
:10FD9000070142466068FFF785FAC4F80C80BDE8A9
:10FDA000F08700000FB4054B10B503A9044A029870
:10FDB00000F066F810BC5DF814FB00007B21020027
:10FDC000E83200200FB41CB50246002007AC002921
:10FDD0000BD0491ECDE90021054B6A462146069805
:10FDE00000F04EF8009A002111701CBC5DF814FB65
:10FDF000E30202000FB4084B10B504A902AA03984D
:10FE000000F03EF8044602A9002000F075FA2046F2
:10FE100010BC5DF814FB0000F902020002E008C803
:10FE2000121F08C1002AFAD170477047002001E074
:10FE300001C1121F002AFBD1704700000146202992
:10FE400008DA012088400A4A104008B101207047B2
:10FE50000020FCE7402909DAA1F12000012202FA82
:10FE600000F008B10120F2E70020F0E70120EEE702
:10FE7000FC06FFBD00BFEFF31081084672B6704765
:10FE80002DE9FF4F8DB00F460546002606E02528D8
:10FE90000BD0DDE90F1290476D1C761C28780028E6
:10FEA000F5D111B03046BDE8F08F0024A246A1463E
:10FEB0000122EC4900E0044315F8013F203B02FA1F
:10FEC00003F00842F7D128782A2810D06FF02F02CB
:10FED0002878A0F13001092914D80AEB8A0102EB35
:10FEE000410144F0020400EB010A6D1CF0E701CF70
:10FEF0005FEA000A03D544F40054CAF1000A44F052
:10FF000002046D1C28782E2817D115F8010F44F033
:10FF100004042A280ED06FF02F022878A0F13001B7
:10FF200009290AD809EB890102EB410100EB01091B
:10FF30006D1CF2E757F8049B6D1C28786C280FD0D5
:10FF400006DC4C2817D068280DD06A2814D104E0AC
:10FF5000742810D07A280FD10DE044F400140AE080
:10FF600044F4801401E044F440146978814202D1E1
:10FF700004F580146D1C6D1C2A786E2A1FD00CDCD1
:10FF8000632A31D004DC002A8BD0582A11D1A3E097
:10FF9000642A68D0692A0CD165E0732A2ED004DC6B
:10FFA0006F2A73D0702A04D19BE0752A6FD0782A0B
:10FFB0006ED01046DDE90F129047761C50E1C4F375
:10FFC0000250022806D0032809D0042801CF09D006
:10FFD000066045E101CFF117C0E9006140E101CFC2
:10FFE00006803DE106703BE117F8040B8DF8000038
:10FFF00000208DF80100EB46012003E057F804BB18
:020000040002F8
:100000004FF0FF3061074FF0000102D40DE008F11E
:100010000101884649450FDA8045F8DB1BF80810D6
:100020000029F4D108E008F1010188468142FADB99
:100030001BF808100029F6D1DDE90F23AAEB080010
:100040008146214600F036F9304400EB080604E012
:10005000DDE90F121BF8010B9047B8F10108F7D248
:1000600021464846F7E00A21C4F302534FF0000B43
:100070000891022B04D001CFC117032B09D00AE04D
:10008000FF1D27F00707F7E8020108E032E01FE054
:1000900020E000B2C117042B01D140B2C117031EEA
:1000A00071F1000307DA4FF0000CD0EB0C006CEBA1
:1000B00001012D2302E0230504D52B238DF82430E4
:1000C000012303E0E30701D02023F7E7984658E037
:1000D0000A2110E010210EE010204FF0000B0890D4
:1000E0000CE010214FF0000B44F004044FF008091D
:1000F000089103E008214FF0000B0891C4F302536C
:10010000022B04D001CF0021032B06D006E0FF1DF7
:1001100027F00707F7E8020103E080B2042B00D1C3
:10012000C0B24FF0000823072BD5702A07D0DDF8A6
:1001300020C08CF0100C5CEA0B0C05D00EE04023C4
:100140008DF82430012308E050EA010306D0302363
:100150008DF824308DF8252002239846DDF820C044
:100160008CF0080C5CEA0B0C0BD150EA010301D1B6
:10017000630706D530238DF824304FF00108A9F12C
:100180000109582A04D038A20B9208AA0A920BE05F
:100190003AA2F9E75B46089AFFF74EF80B9B9B5C87
:1001A0000A9A521E0A92137050EA0102F2D10A987A
:1001B000ADEB000000F1200B600702D524F4803481
:1001C00001E04FF00109D94502DDA9EB0B0000E089
:1001D000002000EB0B0141440890AAEB010AE00368
:1001E00006D4DDE90F232146504600F063F80644AB
:1001F0004FF0000908E009A911F80900DDE90F1224
:10020000904709F10109761CC145F4DBE0030CD5E8
:10021000DDE90F232146504600F04CF8064404E087
:10022000DDE90F1230209047761C0899481E08908F
:100230000029F5DC08E00A980A990078491C0A911F
:10024000DDE90F129047761CBBF10001ABF1010B09
:10025000F1DC21465046DDE90F2300F019F8064491
:100260006D1C1BE609280100303132333435363736
:1002700038396162636465660000000030313233F2
:100280003435363738394142434445460000000092
:100290002DE9F041044600251E461746880404D483
:1002A00005E039462020B0476D1C641EF9D528466C
:1002B000BDE8F0812DE9F041044600251E46904638
:1002C000C80301D5302700E02027880404D505E0C5
:1002D00041463846B0476D1C641EF9D52846BDE836
:1002E000F0814A68002A06D00A68531C0B6010701F
:1002F0004868401E486070470A68531C0B601070C5
:1003000070470246002104E0505C08B101207047AC
:10031000491C0629F8D30020F9E72DE9FC410446E1
:1003200088461646002537880020308094F82D0036
:1003300058B13A463146404600F069FE054600BFD6
:1003400015B12846BDE8FC8100BFA07850B13A46FF
:100350003146404600F080FB054600BF0DB12846FF
:10036000F0E700BFE07860B1E17848B23B46324642
:10037000414601F0DDFE054600BF0DB12846E1E72C
:1003800000BF606868B1616891F900003B46324681
:10039000414605F065FA054600BF0DB12846D1E794
:1003A00000BF208900280EDD43460622022104F109
:1003B0000800CDE9006705F01DFD054600BF0DB141
:1003C0002846BFE700BF208A00280EDD43460722EB
:1003D000032104F11000CDE9006705F00BFD05468F
:1003E00000BF0DB12846ADE700BF208B00280EDD11
:1003F00043461522142104F11800CDE9006705F0E9
:10040000F9FC054600BF0DB128469BE700BF206AF6
:1004100058B13B4632464146206A01F0AAFB0546E8
:1004200000BF0DB128468DE700BF606A58B13B465A
:1004300032464146606A02F0B7F9054600BF0DB189
:1004400028467FE700BF94F82C0000280BDD3B46D0
:1004500032464146204604F0A5FD054600BF0DB1D9
:1004600028466FE700BF207858B13B4632464146E8
:10047000204602F0D4F9054600BF0DB1284661E7D9
:1004800000BF28465EE7000070B504461448FFF739
:1004900038FF0546012C06D0022C0BD0032C10D0BF
:1004A000042C1AD113E00F48407810B10DB101208F
:1004B00070BD00BF0B48807810B10DB10220F7E786
:1004C00000BF0848C07808B10320F1E700BF054825
:1004D000007908B10420EBE700BF0020E8E7000046
:1004E00086320020403700200146481C052290FB40
:1004F000F2F302FB1300C0B270470146C87800F067
:10050000040008B9072070470020FCE710B501225D
:100510000221002001F068F8044600BF1CB1072C3E
:1005200001D0204610BD00BF07220221012001F0AA
:100530005BF8044600BF1CB1072C01D02046F1E750
:1005400000BF0A220021084601F04EF8044600BF11
:100550001CB1072C01D02046E4E700BF0020E1E7F2
:1005600030B5A7B03C2118A8FEF7B5FE02208DF8E3
:10057000600000208DF8620005208DF863003C21AA
:1005800009A8FEF7A8FE0120ADF8340013490E912A
:10059000202101A8FEF79FFE01208DF807004020D2
:1005A0000590B420069000200D4B01AA09A90090E7
:1005B00018A800F045FB044600BF25463DB100BF2A
:1005C00008A240F20331284600F02AF800BF00BF1D
:1005D000012000F02FFB27B030BD00002A320020A0
:1005E000D93F02002E2E5C2E2E5C2E2E5C6D616992
:1005F0006E2E630070B504460D46164604A1012018
:1006000003F05DFB32462946204600F019F870BD24
:100610003A4552524F523A466174616C0D0A0000DD
:10062000FEB504460E461546B0B2ADF80000019581
:1006300002946A46002144F20100FFF7DBFFFEBD91
:1006400018B5012300939DF800301E4B18605960C7
:100650009A606FF48043034463B1012B19D1194BA5
:10066000DA60DB681B88174CA3612346DB685B6894
:10067000E3610EE0134B1A611B699B68114C6361C7
:1006800023461B691B88A36123461B695B68E361E2
:1006900000BF00BF0B4B1B680A4B5B68094B9B6894
:1006A000084BDB68074B1B69064B5B69054B9B6975
:1006B000044BDB6972B600BF9DF80030002BFBD104
:1006C00062B618BDF838002070B504460D462046C5
:1006D00001F012FD28B12946204601F001FD00205D
:1006E00070BD0520FCE7034609B90E20704712B122
:1006F000501E104008B10920F8E71960501E98807C
:1007000000209860D86000BFF0E770B504460D4641
:10071000204601F0F1FCA188884205D829462046F0
:1007200001F0FDFC002070BD0420FCE710B503467D
:100730000C4600BF0B48807808B9082010BD00BFE8
:100740000AB90720FAE70BB90720F7E71868007C19
:1007500008B10820F2E71968002008744C744A6157
:1007600000BFEBE71839002010B504F041F8002075
:100770000F49087048700B20887000200D490860F0
:100780000D4908700D4908701420FEF719FF072164
:100790001420FEF74FFF1420FEF72AFF002003F07D
:1007A000FDFF03F0F5FF06490860002010BD0000C2
:1007B00018390020C4320020D4320020D532002065
:1007C000C83200202DE9F04104460E461746254662
:1007D00000BF1048807810B90820BDE8F08100BF44
:1007E0000CB90820F9E7052E01D20720F5E7686962
:1007F00008B90820F1E7687C012801D1304600E003
:10080000002080463B4642463146284604F0A8FE7A
:10081000E3E700001839002070B50446254600BF04
:100820000848807808B9082070BD00BF0CB168691D
:1008300008B90820F8E7002028740221284604F0AF
:10084000BEFEF1E7183900202DE9F04104461048BA
:10085000077821460F48FFF737FF8046A7B10020F1
:100860000B49087001220C490C4802F02DFD054689
:1008700000BF2E4636B100BF09A2D5213046FFF792
:10088000CFFE00BF00BF00BF4046BDE8F0810000C2
:10089000E6320020243A0020E5320020D832002041
:1008A0002E2E5C2E2E5C2E2E5C2E2E5C2E2E5C2E82
:1008B0002E5C636F6D706F6E656E74735C6C6962D5
:1008C0007261726965735C756172745C6170705F8E
:1008D000756172745F6669666F2E63002DE9F04181
:1008E00088B004460D46174698462E4807601DB945
:1008F000072008B0BDE8F081A88882B22A4829689C
:10090000FFF7F1FE064600BF0EB13046F1E700BF2B
:10091000A88982B22548A968FFF7E5FE064600BF10
:100920000EB13046E5E700BF202221496846FEF7B8
:10093000B9FC60690690207C08B1012000E000202D
:100940008DF814008DF81C80607C08B10E2000E04A
:1009500000208DF81500E0680290A06803902068E0
:10096000019060680090134A6946134802F06AFCDF
:10097000064600BF0EB13046BBE700BF00200F495E
:1009800008702068401C58B19DF81D0010B90A4835
:1009900002F004FD01220A49074802F095FCA8E78D
:1009A0000020A6E7E0320020243A0020343A00205C
:1009B000F060020061590200D8320020E6320020C7
:1009C000E532002070B5044621460B48FFF79DFE36
:1009D000054675B9094802F07BFE50B9084906483A
:1009E000FFF772FE28B901220549044802F0BAFD5A
:1009F0000546284670BD0000343A0020D832002059
:100A0000E432002010B50446204604F057FA10BD29
:100A100070B5044625460E488068B0B1ADB9FFF701
:100A200029FA06460A4800680A49086008484068EA
:100A30004FF0E021C1F804010020054988601EB98B
:100A400000BF62B600BF00BF00BF00BF70BD0000A6
:100A5000443A002000E100E0F8B505460C46174690
:100A60002088001DB84201D90C20F8BD684679DF06
:100A7000064600BF0EB13046F7E700BF03202188CD
:100A800068542088401C20801920218868542088C0
:100A9000401C208020884119BDF8000005F037F97E
:100AA0002188084420800020DFE7000070B505465B
:100AB0000C462068401C28B1206802F0C8FE20685F
:100AC00002F087FE6068401C18B10021606802F0E7
:100AD00073FE28792D4901EB4010007F50B3286840
:100AE000A169C0F8241500BF617D227D286841EA14
:100AF0000203C0F86C3500BFD4E90012286803F087
:100B000021FA207D01283FD1A068401C18B10021A6
:100B1000A06802F051FEE068401C28B1E06802F0D5
:100B200096FEE06802F055FED4E90221286803F041
:100B3000F5F929E02868A169C0F8241500BF617D96
:100B4000227D286841EA0203C0F86C3500BFD4E971
:100B50000012286803F0C9F9207D012814D1A0688B
:100B6000401C18B10021A06802F026FEE068401C7D
:100B700028B1E06802F06BFEE06802F02AFED4E9DA
:100B80000221286803F09AF970BD00009C3800200B
:100B90000146480C400408B9012070470020FCE7DA
:100BA0002DE9F04192B080460D461F201190109023
:100BB000B8F1000F17D04046FFF79FFC044600BF76
:100BC0001CB1204612B0BDE8F08100BF11AA08A9EF
:100BD0004046FFF7A2FB044600BF0CB12046F1E7F8
:100BE00000BF08AE02E0002600201190ADB12846FB
:100BF00004F0FCFB044600BF0CB12046E2E700BF56
:100C000010AA69462846FFF788FB044600BF0CB1CE
:100C10002046D7E700BF6F4602E000270020109073
:100C2000BDF84000C3B2BDF84400C1B23A463046F8
:100C300072DFC7E701490870704700008432002066
:100C40002DE9F04704460F4615461E46DDF8208084
:100C500004B115B90E20BDE8F0870120494908709C
:100C6000002049490870202229464848FEF71AFB0F
:100C7000002047490870474806604748C0F8008090
:100C80004FF6FF704549088045480021016081808A
:100C900081713C214348FEF71EFB207841490870D2
:100CA000A0788870E078C870607848700846D4E909
:100CB0000412C0E90412D4E90212C0E90212D4E914
:100CC0000612C0E90612606AD8B137483549486251
:100CD00036498160606A00883249496A0880606AE2
:100CE00080883049496A8880002005E0616A896807
:100CF000095C2E4A1154401C2A49496A898881425C
:100D0000F4D8A06A20B32A492A488160254988621C
:100D100027492448806A8160A06A80882149896ABD
:100D20008880A06A00881F49896A0880002005E041
:100D3000A16A8968095C1E4A1154401C1949896AD4
:100D400089888142F4D894F82C00164981F82C0047
:100D5000206A58B1184813490862206A4088096A15
:100D60004880206A00880F49096A0880606810B1CD
:100D70000C496068486039460A48FFF711FF814610
:100D8000484668E780320020833200204037002048
:100D900084320020943200209832002092320020C9
:100DA00085320020603700209C370020A8370020C3
:100DB000D4370020C83700208E32002010B50446FA
:100DC0002088102804D0112806D01B280CD107E059
:100DD000204603F097FA08E0204603F051FB04E0B8
:100DE000204603F0E7FB00E000BF00BF10BD00009D
:100DF0007FB505464E48007810B9082004B070BD94
:100E00004C48057001F0AFF920B101204A49087043
:100E10000020F3E749480021016081808171484842
:100E2000407818B14348007801280DD044488078B4
:100E300018B140480078012806D04148807888B130
:100E40003C48007802280DD13E48006838B10120A6
:100E50003D49087008203B490968884702E00020A6
:100E6000394908702846FFF70FFB324908703548AA
:100E70000068C0B108460078032803D0084600780F
:100E8000042810D12E48007868B13048007850B955
:100E900000202F49087001202E4908700720294999
:100EA0000968884702E000202A4908700020009065
:100EB0000190029003908DF800008DF808001D4805
:100EC000007805281CD2DFE800F01703080D120097
:100ED000684604F0D7F8044613E0684604F0E2F8E8
:100EE00004460EE0684604F0F3F8044609E068465C
:100EF00004F01EF9044604E000201749087000E0E1
:100F000000BF00BF0B48007838B11448017868462C
:100F100073DF04460CB1204670E70A48006820B130
:100F20000D480078074909688847002066E70000F7
:100F30008032002083320020813200208532002060
:100F400040370020943200208C3200209C32002058
:100F50009E3200209D320020823200208432002008
:100F600070B505461C2229461248FEF79BF9002061
:100F700011490870286850B1104829680A68026051
:100F8000496841607ADF04463CB1204670BD0B4899
:100F90007BDF04460CB12046F8E74FF6FF700849A6
:100FA0000880002007490870074A00210748FFF71A
:100FB000BDFBEBE7F4370020B4320020A032002064
:100FC000AA320020A83200201D5D0200C05F02008E
:100FD00010B504462088102806D0112808D0122801
:100FE0000ED0502810D107E0204603F06BF90CE03A
:100FF000204603F021FA08E0204603F0F7FA04E067
:10100000204603F053F900E000BF00BF10BD2DE9FA
:10101000FC4105460C46174620880930B84202D9E3
:101020000C20BDE8FC8168466DDF064600BF0EB1AE
:101030003046F6E700BF0820218868542088401C0D
:1010400020801B20218868542088401C2080208814
:101050002844DDF801100160BDF80510818020886A
:10106000801D20809DF80000400818B900202188CC
:10107000685402E00120218868542088401C2080A8
:101080000020CEE710B504462046FFF7A1FF214619
:10109000084801F059FC2146074800F059F820465D
:1010A00002F0BEFF2046FFF789FE204600F0E4F97B
:1010B00010BD0000343300201833002070B586B016
:1010C00004460E46214B0FCB01AD0FC500BF14B92E
:1010D0000E2006B070BD00BF00BF0EB90E20F8E7AD
:1010E00000BF4FF6FF70A0823068A0610020A0759D
:1010F000214601A862DF054600BF0DB12846E8E79A
:1011000000BF20788DF816000120ADF81400A21C55
:1011100005A9A0DF054600BF0DB12846D9E700BFED
:101120003146204603F0AFFB054600BF0DB128460F
:10113000CFE700BF3146204604F0E7FA054600BF7E
:101140000DB12846C5E700BF0020C2E7DC5F020002
:1011500070B505460C4605B104B970BD208810284D
:1011600004D0112807D050280FD109E02146284685
:1011700003F0C4F80AE02146284603F07DF905E0B3
:101180002146284603F058FA00E000BF00BF00BF28
:10119000E3E737B584B004460D4600BF14B90E200E
:1011A00007B030BD00BFA08A4FF6FF71884201D062
:1011B000A07D08B90820F3E7BDF818009B2801DDE1
:1011C0000720EDE700200090019002900390A08896
:1011D000ADF80000039506A8029001208DF80200EA
:1011E000A08A6946A6DFDBE770B50446204604F016
:1011F00088FD054605F0010070BD000070B586B0A1
:101200005E480068059000BF0023D8225C4905A80D
:1012100004F096F8054600BF2E463EB100BF59A225
:1012200040F227213046FFF7FBF900BF00BF00BFA7
:101230000020049004A803F0E3FF044600BF254605
:101240003DB100BF4FA24FF40B712846FFF7E8F9FC
:1012500000BF00BF002001900290039001208DF894
:10126000040000208DF805008DF8060001A940203B
:10127000049A69DF044600BF25463DB100BF41A284
:1012800040F237212846FFF7CBF900BF00BF00200E
:1012900001900290039001208DF804009E20ADF88B
:1012A000060001A92320049A69DF044600BF2546F1
:1012B0003DB100BF33A240F23E212846FFF7B0F90E
:1012C00000BF00BF002001900290039001208DF824
:1012D00004004FF4A071ADF808108DF8060001A9C4
:1012E0002020049A69DF044600BF25463DB100BFB7
:1012F00024A240F246212846FFF792F900BF00BF22
:10130000002001900290039001208DF80400142029
:101310008DF8060001A92220049A69DF044600BF67
:1013200025463DB100BF17A240F24D212846FFF7E8
:1013300077F900BF00BF04A803F078FF044600BFA0
:1013400025463DB100BF0FA240F251212846FFF7CC
:1013500067F900BF00BF0F4803F05CFF044600BF01
:1013600025463DB100BF07A240F255212846FFF7B0
:1013700057F900BF00BF06B070BD0000345F020027
:10138000603300202E2E5C2E2E5C2E2E5C6D61694B
:101390006E2E63008510020001460148405C7047D4
:1013A0008D5F020010B502460949885C00BF4FF00E
:1013B000A0442146D1F80435012484409C43C1F85F
:1013C0000845012484401C40C1F80C4500BF10BDF5
:1013D000895F020010B504460249085D012102F050
:1013E00041FA10BD895F020010B504460249085D4C
:1013F000002102F037FA10BD895F020010B50146E6
:10140000094B585C00BF4FF0A044234600BFD3F8FF
:101410000445C44004F001040CB1012000E00020A8
:10142000024682F0010010BD895F020010B5002461
:1014300003E02046FFF7CEFF641C042CF9D310BD57
:1014400010B5002403E02046FFF7CEFF641C042CF7
:10145000F9D310BD02464FF0FF30002106E0054BE6
:101460005B5C934201D1084602E0491C0429F6D393
:1014700000BF70478D5F020070B5054628881028B0
:1014800002D011282CD115E01748006860B900F08F
:1014900033FC044600BF34B11448006818B120463C
:1014A00012490968884700BF0F480068401C0E4970
:1014B000086016E00C480068401E0B4908600846AA
:1014C000006860B9FFF722F8044600BF34B107484E
:1014D000006818B1204605490968884700BF00E048
:1014E00000BF00BF70BD00007C32002078320020B9
:1014F00010B5002000F074FA044600BF1CB1062CA1
:1015000001D0204610BD00BF012000F069FA04465A
:1015100000BF1CB1062C01D02046F3E700BF00201D
:10152000F0E700002DE9F04106460F464FF00008B5
:1015300000243046FFF78EFF0446042C3ED20FB342
:10154000012F02D0022F38D130E004EB44002149B2
:1015500011F8008004EB44000844407850B11E4A62
:101560004FF400411D480068FFF72CF905460DB9FE
:101570001948067004EB440016490844807818495D
:1015800008551AE015480068FFF746F91448005D51
:1015900004EB44010F4A11448978884205D104EBD9
:1015A00044001146084490F8028006E004EB440031
:1015B0000849084490F8018000BF00BFB8F1000F4F
:1015C00006D00848006818B14046064909688847AF
:1015D000BDE8F08114370020703200209C5F0200CB
:1015E000713200206C32002030B503460020042BFD
:1015F00023D2012A07D1012903D103F10E04E4B259
:1016000000E00024224679B1012902D0022911D13B
:1016100004E003EB43040A4D2A550DE003EB4304B9
:10162000074D2C44627007E003EB4304044D2C4447
:10163000A27001E0072000BF00E0072030BD0000DD
:101640001437002070B5044600250548007800F0E6
:10165000010018B1204600F005F80546284670BD87
:10166000643200202DE9F047044600260025D748C3
:10167000007820B10020D549087000F055FF182CE3
:1016800079D2DFE804F00C11124579ADF1FFEEEDEF
:10169000ECEBEAE9E8E7E6E5E4E3E2E1E0DF00F0CD
:1016A00043FFCB4804708DE100BF0020FFF7A6FE8A
:1016B00058B10020FFF78EFE022C02D14FF4E160FA
:1016C00001E04FF47A60054609E00020FFF78CFE48
:1016D000022C01D1C82001E04FF4C8700546BC4877
:1016E00004704FF40040A5FB00204FF4FA73D718A4
:1016F00040F100015A0000233846FDF79DFD814668
:1017000000224946B3480068FFF75CF8064659E1F5
:101710000020FFF773FE58B10020FFF75BFE032C9B
:1017200002D14FF4487001E04FF47A60054609E0B9
:101730000020FFF759FE032C01D1C82001E04FF42F
:10174000C8700546A24804704FF40040A5FB002075
:101750004FF4FA73D71840F100015A0000233846BD
:10176000FDF76AFD8146002249469A480068FFF766
:1017700029F8064626E124E10020FFF73FFE58B194
:101780000020FFF727FE042C02D14FF47A6001E01D
:101790004FF47A6005460AE00020FFF725FE042C8E
:1017A00002D14FF4C87001E04FF4C8700546884874
:1017B00004704FF40040A5FB00104FF4FA73CF18EB
:1017C00040F100015A0000233846FDF735FD8146FF
:1017D000002249467F480068FEF7F4FF0646F1E024
:1017E0000020FFF70BFE50B10020FFF7F3FD052CA2
:1017F00001D1C82001E04FF47A60054609E00020DD
:10180000FFF7F2FD052C01D1C82001E04FF4C870AC
:1018100005466F4804704FF40040A5FB00204FF4CC
:10182000FA73D71840F100015A0000233846FDF73B
:1018300003FD81460022494666480068FEF7C2FF64
:101840000646BFE0B8E0B6E0AAE0A1E098E092E08A
:101850005FE05DE05BE059E057E051E042E033E0FB
:1018600024E015E00EE0FFE70020FFF79BFD58485D
:101870000470002240F6CD4156480068FEF7A2FFF2
:1018800006469FE00020FFF7AFFD5148047099E045
:1018900001204E490870FFF785FD002240F6CD413A
:1018A0004C480068FEF78EFF06468BE00120474952
:1018B0000870FFF777FD00224FF48041454800682B
:1018C000FEF780FF06467DE0012040490870FFF7E3
:1018D00069FD002240F6CD413E480068FEF772FFE8
:1018E00006466FE0012039490870FFF75BFD0022D2
:1018F0004FF4804137480068FEF764FF064661E018
:10190000FFF79EFD324804705CE000BF00BF00BFDF
:1019100000BF31480068FEF77FFF0646C4F111059D
:1019200015B30EBB012D18D9A8B2C82148434FF4F6
:10193000004180FB01304FF4FA729F1840F1000122
:10194000520000233846FDF777FC814600224946C5
:1019500021480068FEF736FF06460220FFF744FDE7
:1019600001201E49087005E00220FFF733FD00202A
:101970001A49087026E000F0D7FD1548047021E0F0
:1019800000F0D2FD0020FFF72FFD1148047019E090
:1019900000F0CAFD0120FFF727FD0D48047011E09B
:1019A00000F0C2FD0020FFF71FFD0120FFF71CFD26
:1019B0000748047006E000BFFFF742FD04480470CA
:1019C00000E000BF00BF3046BDE8F0876132002074
:1019D00060320020945F0200985F020068320020AD
:1019E00070B504462046FFF7D7FC0546032101F0F9
:1019F000FCFE002070BD0246002901DA002003E051
:101A000013680B4413600120704730B502460B4643
:101A100002210EE08C0042FA04F404F00F000928C1
:101A200002DD00F1370401E000F13004C1F10105ED
:101A30005C550C1EA1F10101ECD130BD01460248FC
:101A400050F821007047000044380020014601484A
:101A5000405670477438002070B505460DB9094CE2
:101A600001E0084C083409E0204600F057FD064626
:101A700006B904E028467168884700BFF4E700BF54
:101A800070BD0000383800202DE9F04782461F481D
:101A90000068002836D01D480068056802F078FE0E
:101AA00007461B4804682146384603F0A6FCC61CBE
:101AB0001848007808B902F07DFEAE4201D22846EF
:101AC00000E03046044424F07F44204602F05AFEF1
:101AD00002F05EFE80463946404603F08EFC00F17F
:101AE00003093946204603F088FC814509D902F0F4
:101AF0004FFE814602F046FE2F2000F099FF03F0D2
:101B0000CBFD01E002F074FEBDE8F087C432002096
:101B1000C8320020D632002001460888062808DB9B
:101B20000888B0F5486F06DD08884FF6FF729042CE
:101B300001D0072070474888062808DB4888B0F5A0
:101B4000486F06DD48884FF6FF72904201D00720AB
:101B5000F0E708884FF6FF72904208D0488890421C
:101B600005D008884A88904201DD0720E2E700207E
:101B7000E0E72DE9F04106460D46144698462088D8
:101B8000801D404502D90C20BDE8F0813046FFF7AA
:101B9000C3FF074600BF0FB13846F5E700BF052079
:101BA000218868542088401C208012202188685495
:101BB0002088401C208022885119308804F0A7F822
:101BC00021880844208022885119708804F09FF8E9
:101BD0002188084420800020D6E7000010B5044684
:101BE00000BF04A24FF4A9712046FEF719FD00BF03
:101BF00010BD00002E2E5C2E2E5C2E2E5C6D6169B9
:101C00006E2E630030B587B01C216846FDF763FB7C
:101C1000002000904FF4203001904FF4702002908B
:101C200003208DF80C000020ADF80E008DF8100098
:101C30000A4805900A4806906846FFF791F904465D
:101C400000BF25463DB100BF06A240F269112846FB
:101C5000FEF7E6FC00BF00BF07B030BD6D420200DA
:101C6000DD1B02002E2E5C2E2E5C2E2E5C6D61691B
:101C70006E2E630038B51B4800F032FC20BB1A48BA
:101C8000007848B119484069E8B100200090174831
:101C900041696846884716E01548007810B913482E
:101CA000456801E01148856800222946114800680E
:101CB000FEF788FD044634B10C48806918B10B4822
:101CC00081692046884709E00848406930B1012011
:101CD0000090064841696846884700BF00200249D5
:101CE000087038BDAC320020B4320020F437002038
:101CF000A8320020C05F020010B501220021084672
:101D0000FFF772FC044600BF1CB1072C01D020462F
:101D100010BD00BF072202210120FFF765FC044629
:101D200000BF1CB1072C01D02046F1E700BF042200
:101D300002210020FFF758FC044600BF1CB1072C0D
:101D400001D02046E4E700BF0020E1E77CB504466F
:101D50000D46002000900190A81D00EBC400807982
:101D6000ADF80000A81D00EBC4008079ADF80200BA
:101D70000022694620468FDF06462EB133462246B2
:101D80000249012001F0B1FF7CBD0000D4620200D5
:101D9000014614480078144A127890421DD0114828
:101DA0000078401C0F4A107010460078022801D1BC
:101DB000002010700D480B4A127850F8220008607D
:101DC0000B4A086812681044094A106010460068FF
:101DD00020F07F401060012070470020086000BFA5
:101DE000FAE70000D4320020D5320020CC320020A7
:101DF000C832002013480078062820D11148001D61
:101E0000007800F00F00D0B90E480830007800F0DC
:101E1000F000302801D1012070470A4808300078CE
:101E200000F0F000402801D10120F5E70548083016
:101E3000007800F0F000502801D10120ECE70020EC
:101E4000EAE70000E00F00F013480078062820D1F0
:101E50001148001D007800F00F00D0B90E4808307E
:101E6000007800F0F000302801D1012070470A48C6
:101E70000830007800F0F000402801D10120F5E79B
:101E800005480830007800F0F000502801D101200A
:101E9000ECE70020EAE70000E00F00F013480078CC
:101EA000062820D11148001D007800F00F00D0B99D
:101EB0000E480830007800F0F000302801D10120F1
:101EC00070470A480830007800F0F000402801D13F
:101ED0000120F5E705480830007800F0F0005028B0
:101EE00001D10120ECE70020EAE70000E00F00F05C
:101EF0000A48007806280ED10848001D007800F036
:101F00000F0040B905480830007800F0F000302894
:101F100001D1012070470020FCE70000E00F00F035
:101F200013480078062820D11148001D007800F0E1
:101F30000F00D0B90E480830007800F0F0003028CB
:101F400001D1012070470A480830007800F0F00005
:101F5000402801D10120F5E705480830007800F05D
:101F6000F000502801D10120ECE70020EAE7000052
:101F7000E00F00F00A48007806280ED10848001D3E
:101F8000007800F00F0040B905480830007800F0F4
:101F9000F000302801D1012070470020FCE700004C
:101FA000E00F00F013480078062820D11148001DEA
:101FB000007800F00F00D0B90E480830007800F02B
:101FC000F000302801D1012070470A48083000781D
:101FD00000F0F000402801D10120F5E70548083065
:101FE000007800F0F000502801D10120ECE700203B
:101FF000EAE70000E00F00F00A48007806280ED15A
:102000000848001D007800F00F0040B9054808306E
:10201000007800F0F000302801D101207047002046
:10202000FCE70000E00F00F00A48007806280ED117
:102030000848001D007800F00F0040B9054808303E
:10204000007800F0F000302801D101207047002016
:10205000FCE70000E00F00F00A48007806280ED1E7
:102060000848001D007800F00F0040B9054808300E
:10207000007800F0F000502801D1012070470020C6
:10208000FCE70000E00F00F0F0B5034600241FE07D
:10209000124E306806689E4203D90668F61A06603A
:1020A0001AE006689B1B06683444002606600B4E47
:1020B00035680A4FC6693E60C66846B10E1926F0FB
:1020C0007F464660C66886601668C661156000BFB8
:1020D000024800680028DBD100BFF0BDC4320020F8
:1020E00070B504460D462A460021204600F00EF841
:1020F000A068401CA06070BD01468A68C868801A4C
:10210000704701468A68C868801A704710B58368AE
:102110000B44848823400468E35C137010BDC268DC
:1021200083881A4003689954C268521CC260704781
:1021300030B504461088C01C984201D90C2030BD2F
:102140000220158848551088401C108001201588F1
:1021500048551088401C108015884C551088401C2C
:1021600010800020EBE708B5684600F00FF80098F3
:1021700008B1012008BD0020FCE770B504460D46FB
:10218000E0B2FEF71FFC204670BD0000014609B911
:10219000032070470248406E08600020F9E7000005
:1021A000503A00203EB500BF9DF8000020F00F001F
:1021B000401C00909DF8000020F0F00010300090CE
:1021C00000BF0A2216A168467CDF044600BF2546F0
:1021D00035B100BF15A2E2212846FEF721FA00BF63
:1021E00000BF0020019002900620ADF804003C20C2
:1021F000ADF806000020ADF808004FF4C870ADF847
:102200000A0001A87ADF044600BF254635B100BFA9
:1022100006A2EC212846FEF703FA00BF00BF3EBD30
:1022200053454E494F522044455300002E2E5C2EFC
:102230002E5C2E2E5C6D61696E2E630070B50546B6
:102240000C4660880A49098888420FD1208840F6E8
:10225000772188420AD1A088C01E06490880084616
:102260000388028804A1032001F03FFD70BD000037
:10227000283200202E3200204150503A494E464F1D
:102280003A44617461206C656E20697320736574D3
:1022900020746F2030782558282564290D0A000005
:1022A00070B51149114800F035FB044600BF2546C2
:1022B0003DB100BF0EA24FF41B712846FEF7B0F9E6
:1022C00000BF00BF4021094800F015FB044600BFD5
:1022D00025463DB100BF06A240F26F212846FEF719
:1022E0009FF900BF00BF70BD3D22020034330020C3
:1022F0002E2E5C2E2E5C2E2E5C6D61696E2E630080
:10230000F8B52948007800B9F8BD002527480068CD
:1023100008B9012000E00020064600BFEDB92448BE
:10232000007800B1F0E7684648DF0446052C01D18B
:10233000012511E034B100BF1E4AB5212046FEF749
:102340006FF909E0009800F00DFC1B48006818B117
:10235000194900980968884700BFEEB91448007809
:1023600000B1D1E71548008800906946144800681C
:1023700061DF0446052C01D101260CE034B100BF19
:102380000C4ADD212046FEF74BF904E00C480068BA
:1023900006490968884700BF0DB106B100E0BDE7F6
:1023A00000BF00BFB0E7000004330020103300205E
:1023B0000533002048630200003300200C33002066
:1023C0000833002070B504460D4620791D4901EB05
:1023D0004010007FF8B14FF48871206801F097FD3C
:1023E0004FF49071206801F092FD4FF492712068D3
:1023F00001F08DFD4FF4A271206801F088FD1249B3
:10240000206801F094FD206800F0F2FB06462946A2
:1024100000F0BEFB14E04FF48E71206801F047FD20
:102420004FF4A271206801F042FD0849206801F0D4
:102430004DFD206800F0DCFB0646294600F0A8FBB5
:1024400070BD00009C3800201003020080000200D4
:102450002DE9F04704460E469046002722E0384614
:1024600001F0F6FC0546384601F0F9FC81462046AD
:10247000294642580AB1012200E0002282B14846B2
:10248000D4F80413014009B1012100E0002139B161
:102490002946204601F0E8FC2846D6E9002190476D
:1024A000781CC7B24745DADBBDE8F08710B50446B3
:1024B000204600F04BFC04490968084008B101209F
:1024C00010BD0020FCE70000BC32002070B50446BF
:1024D000204600F03BFC0546FEF75AFB70BD0000AD
:1024E00001464888064A1288904206DB4888044A1A
:1024F0005288904201DC012070470020FCE7000078
:10250000A032002010B50446204600F01FFCC0F3A6
:10251000100008B1012010BD0020FCE7014608684A
:1025200008B102680A60704710B50848007850B1D9
:10253000002405E0022C02D02046FEF74BFF641C6D
:10254000042CF7D301E0FEF771FF10BD68320020C4
:102550009E21018017214180002101714171A2213A
:1025600081711B21C17170472DE9F041064600279A
:102570004748D0F8008078E016B13446E66947E075
:102580004448007800EB40014248001D00EBC105C3
:10259000001F0078401C3F49087008460078897881
:1025A000884202D100203B4908706C6828780128D5
:1025B0001AD0022802D0032817D107E0686802F079
:1025C0008BFF00B10127002020744EE007E0304966
:1025D0000868002101742E4AC169116000BF2C48AF
:1025E00000680028F3D140E000E03EE000BF207C1E
:1025F00000B13AE0A8686060E868A0602869E0601F
:102600006869A0612448007808B10020606000BFBC
:10261000224960680968401A20F07F4020498842BA
:1026200008D21E496068096802F0E7FEA168084404
:1026300020600FE019486168006802F0DEFE054680
:10264000A068A84203D9A068401B206001E00020D8
:10265000206000BF00206060A06001202074002086
:10266000E061204602F004FF00BF002E84D109483B
:102670000078084949788842F8D11FB904480068B1
:10268000404502D00120BDE8F0810020FBE70000BA
:10269000C432002018390020D7320020C832002070
:1026A000FFFF7F0070B5002001F036FB044600BF3D
:1026B00025463DB100BF04A24FF448712846FDF7FE
:1026C000AFFF00BF00BF70BD2E2E5C2E2E5C2E2EE5
:1026D0005C6D61696E2E6300FEF746F8044600BF2C
:1026E00025463DB100BF20A240F21B412846FDF720
:1026F00097FF00BF00BF03F0A5F9FFF7D3FFFEF778
:102700007DFDFFF74FFDFFF7CBFD02F097FCFDF7D6
:1027100027FFFFF777FA02F0FDFA02F0FDF902F069
:10272000DBFA02F0BBFA00F0ABFC13A0FDF73AFBBA
:1027300015A1032001F0C3FA0320FEF759FB04465C
:1027400000BF25463DB100BF07A240F234412846F4
:10275000FDF766FF00BF00BF11A0FDF723FB00BF20
:1027600001F0F8FFFCE700002E2E5C2E2E5C2E2ED2
:102770005C6D61696E2E63000D0A55415254205301
:1027800074617274210D0A004150503A494E464F0F
:102790003A55415254205374617274210D0A00005D
:1027A00053746172740A00002DE9F04105460E462B
:1027B00014469846A888871C2088801C38444045C9
:1027C00002D90C20BDE8F081FE2F01D90C20F9E7D9
:1027D000781C218870542088401C2080FF2021888C
:1027E00070542088401C208022889119288803F08A
:1027F0008EFA218808442080A88800280DDDA8686A
:1028000008B90720DEE7AA8823889819A968FCF789
:1028100049FD2088A988084420800020D2E72DE9BE
:10282000F84F05460F46144698462878012804D1EB
:10283000687810B90720BDE8F88F2088801C4045D3
:1028400008D82878012807D12088801C6978084496
:10285000404501D90C20EEE72088A8EB0000801E3F
:1028600086B200962188891CC81969467DDF814699
:1028700000BFB9F1000F01D04846DCE700BF28785F
:10288000022806D1BDF80000B04202DC4FF0090A70
:102890000BE04FF0080A2878012805D16878B0428B
:1028A00002DC6878009000E00096BDF80000FE2889
:1028B00001D90C20BFE7BDF80000401C21887854E6
:1028C0002088401C2080208807F800A02088401C19
:1028D00020802088BDF80010084420800020AAE74E
:1028E00030B502460B46D40802F0070201209040A2
:1028F0001D5D284030BD024600BF0AB90E2070475A
:1029000000BF172901DB9E2901DD0720F7E71180B1
:102910000020F4E770B504460E4600BF0CB90E2047
:1029200070BD00BFA6619E2020806080A220207123
:10293000002505E0A11D01EBC500FFF709FE6D1C98
:10294000022DF7D30020EBE72DE9F04105460E46B6
:10295000B488022C01DBBDE8F0813088222820D029
:1029600006DC102809D011280CD0212823D11DE025
:102970003A280CD055281ED10EE03146284601F0E9
:10298000CBFC19E03146284601F098FD14E03146B1
:10299000284601F0DDFD0FE03146284601F098FDA4
:1029A0000AE03146284601F0F3FC05E031462846AE
:1029B00001F018FD00E000BF00BFA81D00EBC4003F
:1029C0000079C8B1A81D30F8341020469EDF0746B4
:1029D00057B90021A81D00EBC40001710121A81DF9
:1029E00000EBC400417106E0112F04D03A460349C0
:1029F000012001F06EF900BF00BFACE7C06102002A
:102A000001464FF08040405808B101207047002037
:102A1000FCE708B500224FF080410A5009580091A8
:102A200000BF08BD0149086070470000080300406E
:102A300000B9704700BF00BF00BF00BF00BF00BFAC
:102A400000BF00BF00BF1E4909681E4A914200D165
:102A500030E000BF00BF00BF00BF00BF00BF00BF2D
:102A600000BF00BF00BF00BF00BF00BF00BF00BF6E
:102A700000BF00BF00BF00BF00BF00BF00BF00BF5E
:102A800000BF00BF00BF00BF00BF00BF00BF00BF4E
:102A900000BF00BF00BF00BF00BF00BF00BF00BF3E
:102AA00000BF00BF00BF00BF00BF00BF00BF00BF2E
:102AB00000BF00BF401E00D0BDE700BFB9E7000067
:102AC000143300200024F40010B5002416480078C8
:102AD00008B1852425E0002013498860486008611A
:102AE000C86000BF00BF4109890001F1E021D1F8B1
:102AF000001101228240114009B1012100E00021B2
:102B000019B90721002000F043F800BF02F068FC6B
:102B100020B901200549086000BF00BF012002491B
:102B20000870204610BD0000303800201805004015
:102B300008B5002000906846FDF764FF084800785B
:102B400008B9FFF7C1FF0648C068401C0449C860C7
:102B5000012088709DF80000FDF75AFF08BD0000B5
:102B60003038002010B5044614B90020FEF774FF79
:102B700010BD000000BF00F01F0201219140034A78
:102B8000430942F8231000BF7047000080E100E0D5
:102B900070B50B4601461A46002907DA5407260E7F
:102BA000104C01F00F052D1F665503E05407250E4C
:102BB0000D4C655400BF00BF00F01F020121914081
:102BC0000A4A440942F8241000BF00BF00F01F0267
:102BD000012191404209920002F1E022C2F8001165
:102BE00000BF70BD18ED00E000E400E080E200E00E
:102BF0000146C1F3073250B270470146C1F30732B4
:102C000050B27047014601F06040B0F1005F01D161
:102C1000012070470020FCE7F8B506460027002594
:102C20000427174D002425E0002000906846FDF79A
:102C3000E9FE204600F08AF8284078B12046FFF7E8
:102C400035FC58B900BF204600F080F80D490968EE
:102C500008430C49086000BF347000279DF800004D
:102C6000FDF7D6FE07B907E0204600F06FF8854370
:102C7000601CC4B2002DD7D100BF3846F8BD00009B
:102C8000FFFF0100BC3200202DE9F04106460C4652
:102C9000154600BF14B90E20BDE8F08100BF00BF8B
:102CA0000DB90E20F8E700BF00273046FFF72AFCD9
:102CB00008B907270EE03046FFF7F8FB08B90827E8
:102CC00008E000BF044840F8364000EBC60045600D
:102CD00000BF00BF3846DFE710F5014070B504467D
:102CE00000252046FFF7F2FB08B907250DE0204636
:102CF000FFF708FC28B12046FFF7D8FB08B90825E4
:102D000003E0204601F01EF80025284670BD0000B3
:102D100070B5044600252046FFF7D8FB08B9072503
:102D200010E02046FFF7EEFB28B12046FFF7BEFB80
:102D300008B9082506E000BF0120A040024908604C
:102D400000BF00BF284670BD04F5014001460120C8
:102D5000884070470449097821B90121024A11705D
:102D6000002000E085207047B832002070B506468C
:102D70000D46122001F050F82B48007C022805D1A6
:102D8000122001F04FF81124204670BD2648007C27
:102D9000012823D12448C06828B1022001F042F85C
:102DA00011242046F1E72048C660058390F82E00E4
:102DB00070B900BF4FF4807001F018F80028F9D006
:102DC0004FF4807001F01CF82946304600F0C2FF35
:102DD000022001F027F800242046D6E7022001F067
:102DE00021F801201049087408464660058100203A
:102DF000C860084690F82E0038B10846458390F820
:102E00002D10304600F0A6FF0AE02946304600F0BB
:102E1000A1FF4FF4807000F0F3FF002001F012F8E2
:102E200000242046B1E70000C838002070B50546F0
:102E30000C461E48007C10B11126304670BD20792A
:102E400010B12079012805D100BF00201849086081
:102E500000BF00BF15481C3010F8150030B91348EA
:102E600090F82D00401C114981F82D00E1790F48A0
:102E70001C3000F81510217A00EB45004170214606
:102E8000284600F06FFF227AE179284600F0A2FF81
:102E9000207910B12079012805D100BF0120044913
:102EA000086000BF00BF00263046C7E7C8380020D2
:102EB0000075004070B504461348007C10B1112520
:102EC000284670BD10481C3010F8140030B10E4870
:102ED00090F82D00401E0C4981F82D0000210A4871
:102EE0001C3000F8141000EB440041700022114621
:102EF000204600F06FFF40F2FF72D143204600F001
:102F000057F800252846DCE7C838002070B504468D
:102F10000E46244890F82C0010B10825284670BDB4
:102F200016B907252846FAE704B91F4C1D48066064
:102F300020781E49086000BF6078091D086000BF46
:102F4000E078184981F82E00012081F82C0000203B
:102F5000087481F82D00486181F82F006FF000405F
:102F600000F05AFF4FF4827000F04AFF4FF4807077
:102F700000F046FFA1780720FFF70AFE022000F0CC
:102F800051FF084890F82E0010B1012000F04AFFD0
:102F900000BF01200549F039086000BF0025284620
:102FA000BDE70000C838002033600200F075004023
:102FB0002DE9F04104460D46164600BF284666F34B
:102FC0001F40254901EB0411C86000BF00212046C5
:102FD00000F02EFF074615F5006F0DD11F48406920
:102FE0006100491C4FF00042CA4090431B494861B0
:102FF000384600F011FF0CE0184840696100491C98
:103000004FF00042CA40104314494861384600F06E
:1030100009FF0121204600F00BFF074640F2FF7038
:1030200086420BD10D4840696200F107D1408843C8
:103030000A494861384600F0EFFE0BE00748406956
:1030400062004FF00041D1400843044948613846CE
:1030500000F0E8FEBDE8F08110750040C83800209F
:10306000054991F82E1009B1002100E0042108461D
:103070000249014408467047C838002000700040EB
:1030800070B56FF0004000F0C7FE072000BF0121BF
:103090008140164A430942F8231000BF00BF0820B0
:1030A00000F0D0FE42F2107500E06D1E4FF48A7001
:1030B00000F09CFE08B9002DF7D100BF00200C499C
:1030C000086000BF0B490874002408E009481C3060
:1030D00010F8140010B1E0B2FFF7ECFE641C082CED
:1030E000F4D30020034981F82C0070BD80E100E09A
:1030F00000750040C83800202DE9F04105460C4617
:1031000016461F46204600F0AAFE804627B14146DB
:10311000286800F0B3FE03E04146286800F0ABFEEB
:10312000286800F5A86141F8246000BFBDE8F0817F
:1031300010B504460021206800F0A9FE0220217984
:1031400001EB4101024A02EB8101087210BD00004F
:10315000BC3800202DE9F04105460E4617461C46B6
:10316000DDF818804FF48072B2400123B34042EA88
:103170000301286800F085FE2868D0F8001221437A
:10318000C0F8001200BF43463A4631462846FFF7D2
:10319000B3FFBDE8F08100002DE9F04704460D467D
:1031A0009146207900EB4000254901EB8006307AFA
:1031B00018B108273846BDE8F087B9F1000F02D1F1
:1031C00007273846F7E7C6F80090686870604FF048
:1031D00000080BE0404600F03BFE82465146206866
:1031E00000F042FE08F1010000F0FF086079404560
:1031F000F0DC2068FFF701FD8246E978FFF7C8FCA4
:1032000069782068D0F8042561F30102C0F804252C
:1032100000BFA9782068D0F8082561F30102C0F842
:10322000082500BF29782068D0F8102561F3030233
:10323000C0F8102500BF0120307200273846BAE7D9
:10324000BC3800202DE9F04105460E461746287986
:103250001C4901EB40144FF00008E07E20B14FF014
:1032600008084046BDE8F081707F20773146284647
:10327000FDF71CFC676030692060606818B1317F21
:103280002846FFF79FF800BF28790E4901EB401050
:10329000007F28B128680821C0F8001500BF05E0AC
:1032A00028680421C0F8001500BF00BF00BF00203F
:1032B000E0752076A0750120E0760020A0764046DB
:1032C000D0E700009C3800202DE9F04704460E4668
:1032D00017462079304901EB4015207901EB401069
:1032E000007F40B13046FFF78DFC20B94FF0100849
:1032F0004046BDE8F0874FF00009686880B120794A
:10330000254901EB4010007F28B14FF4047120687B
:1033100000F00AFE04E04FF40171206800F0D3FDD4
:10332000E87DD0B1287EB0B1686880B120791A49B3
:1033300001EB4010007F28B14FF40471206800F0C9
:10334000F6FD04E04FF40171206800F0BFFD4FF07E
:1033500011084046CDE74FF00109B9F1000F05D142
:10336000EF75EE6000206876287601E02E612F76FA
:103370002079094901EB4010007F30B14B463A46B5
:103380003146204600F08AF8B3E74B463A463146CC
:10339000204600F01DF8ACE79C38002010B504462C
:1033A00020790A4901EB4010007F68B9207901EBD0
:1033B0004010807E40B9204601F0EBFA01202179CF
:1033C000024A02EB4111887610BD00009C380020B3
:1033D0002DE9F05F04468B46994620792E4901EB92
:1033E0004015A87E28B9B9F1000F02D1204601F09E
:1033F000D0FA6868002846D14FF4A271206800F026
:1034000056FD00BF00BF4FF49271206800F048FDE8
:1034100080464FF48471206800F042FD82464FF4EC
:10342000A271206800F03CFD0646BAF1000F03D1FE
:1034300016B9B8F1000FE6D0B8F1000F00D106B10F
:1034400007E02946206801F0FFF9E87D697E88429F
:10345000D8DC00BF0020E875B8F1000F03D00327C7
:103460003846BDE8F09F16B10F273846F9E7A87E29
:1034700020B10021206800F035FD03E00421206820
:1034800000F030FD04E04FF40171206800F01EFDF3
:1034900000273846E5E700009C3800202DE9F05F62
:1034A00004460D46164699464FF0000A4FF48871BF
:1034B000206800F02CFD4FF4A271206800F027FD79
:1034C0002068C0F834554FF4A7610E5000BFB9F121
:1034D000000F04D10021206800F031FD08E0202118
:1034E0002068D0F800220A43C0F8002200BF00BFC5
:1034F00020791B4901EB4010406848BB00BF4FF4E6
:103500008871206800F0FCFC83464FF4A2712068AB
:1035100000F0F6FC80464FF49271206800F0F0FC59
:103520000746BBF1000F04D1B8F1000F01D1002F05
:10353000E5D0002021790A4A02EB4111C8750FB18C
:103540004FF0030AB8F1000F01D04FF00F0A04E06A
:103550004FF40471206800F0EAFC5046BDE8F09F8B
:103560009C3800202DE9F04104460D469046207914
:10357000144901EB4016207901EB4010007F38B16F
:103580002846FFF73FFB18B910273846BDE8F08101
:10359000204600F09DF810B111273846F6E786F86E
:1035A0001680B5600020B0822079064901EB4010FA
:1035B000007F18B1204600F04DF8E7E7204600F004
:1035C00003F8E3E79C38002070B5044620792049D1
:1035D00001EB401500264FF48E71206800F067FC67
:1035E0000821206800F07EFC2946206802F07AF865
:1035F000686858BB12E000BF4FF48E71206800F07D
:103600004FFC18B9A88AB0F5807FF5D1A88AB0F52B
:10361000807F03D02946206802F064F8A88AA97D3B
:103620008842E8DBA88AB0F5807F01D10F260BE045
:1036300000BF4FF48E71206800F032FC0028F8D0F3
:103640000C21206800F04EFC0020A875304670BDAB
:103650009C3800202DE9F041044620791B4901EBFC
:1036600040154FF000084FF49071206800F04FFCB7
:103670004FF4AC71206800F04AFC2068AA7DA9686C
:10368000C0F844154FF4A9631A5000BF0821206800
:1036900000F055FC6868A8B900BF4FF4907120682D
:1036A00000F02EFC07464FF4AC71206800F028FCB7
:1036B00006460FB9002EF0D00EB14FF00F080020D3
:1036C000A87500BF4046BDE8F08100009C3800208E
:1036D00001460879044A02EB4010807D08B10120C0
:1036E00070470020FCE700009C38002070B50446BD
:1036F00020791F4901EB401500BF207901EB4010F4
:10370000007F28B120680021C0F8001500BF05E047
:1037100020680021C0F8001500BF00BF00BF686826
:10372000F0B100BF2079124901EB4010007F50B189
:103730001049206800F0F8FB2068FFF759FA0646A8
:10374000FFF718FA0AE00B498C39206800F0BBFB40
:103750002068FFF74DFA0646FFF70CFA00BF00BFDE
:10376000204600F08DFF0020E876686070BD000004
:103770009C38002010030200F0B5DDE9054500BFCC
:103780004FF0A0473E4641EA420747EA830747EA2F
:10379000042747EA054C06F5E06747F820C0F0BD6E
:1037A0001CB504460020009003460122014601900A
:1037B0002046FFF7E1FF1CBD7CB505460C46002006
:1037C000009023460246014601902846FFF7D4FFA9
:1037D0007CBD1CB504460020009003460122114622
:1037E00001902046FFF7C8FF1CBD10B50A4600BF78
:1037F0004FF0A043194601F5E06353F8203023F45D
:10380000403401F5E06343F8204053F8203043EAA8
:10381000024401F5E06343F8204010BD10B50A46AC
:1038200000BF4FF0A043194601F5E06353F8203084
:1038300023F4403401F5E06343F8204053F820308E
:1038400043EA024401F5E06343F8204010BD00BFA5
:103850004FF0A0410A46012303FA00F1C2F808150F
:1038600000BF704710B561B900BF00BF4FF0A04264
:103870001346012404FA00F2C3F80C2500BF00BF70
:103880000CE000BF00BF4FF0A0421346012404FA31
:1038900000F2C3F8082500BF00BF00BF10BD000044
:1038A00038B50B46074C24680094014606E05DF8E5
:1038B0002140D4F810551560121D491CC4188C42C3
:1038C000F5D838BDEC5F0200014601480844704756
:1038D0000060004038B504462046FFF7F5FF0021A0
:1038E00001602046FFF7F0FF0068009000BF38BD80
:1038F00010B504462046FFF7E7FF0068012800D115
:1039000010BD0020FCE70000004870479939020014
:1039100030B589B004461B48007830B11A480078A9
:10392000844202D1002009B030BDFBF7BFFF202246
:10393000164901A8FBF7B6FC00208DF818000620F8
:1039400001900820029005200490072003904FF07A
:10395000EB7007900E48FFF7C9FE0CB1002000E0A5
:103960000C48024601A90A48FFF76CFC05460DB158
:103970002846D8E701200349087003480470002056
:10398000D1E70000F8320020F9320020186102006F
:10399000F0320020355A02002DE9F04FC9B08946B7
:1039A00092469846DDF84CB1002006904646559860
:1039B00058440590B9F1000F01D00A2000E0002022
:1039C000049001F0AFFA18B1404649B0BDE8F08F5D
:1039D000B8F1000F1DD109A8069A811806AA484619
:1039E00001F060FE08B94046EFE75046FBF77EFC69
:1039F0000746C22F01D9C22000E03846074609A970
:103A0000069A88183A465146FBF74CFC069838440B
:103A1000069000BF0698029002983130049908443D
:103A2000019009A902980C1801980D180020039024
:103A300005E020202070641C0398401C0390DDE901
:103A400003018842F5D30020079030E005988642B4
:103A500009D3202004F8010B04F8010B04F8010B32
:103A600005F8010B20E05E4503D25298805D089076
:103A700004E0A6EB0B015498405C0890214608989E
:103A8000FDF7C3FFA41C202004F8010BFBF706FC84
:103A900001680898085C00F03E0008B1089800E052
:103AA0002E2005F8010B761C0798401C07900798FC
:103AB0001028CBD30D2005F8010B0A2005F8010BC7
:103AC000202004F8010B049843300699084406901E
:103AD00009A8069901F030FA08B9304675E701F0F7
:103AE00021FA08B1304670E700200690059886421A
:103AF00090D3304669E72DE9F04FC7B083460F46B3
:103B000015461C46DDF840810026002006904FF047
:103B1000010A01F007FA18B1002047B0BDE8F08FA4
:103B200007A8069A811806AA384601F0BBFD08B915
:103B30000020F2E7B8F1070F6FD2DFE808F00414B5
:103B4000223244586F002846FBF7D0FB0646069801
:103B50003044FF2806D807A9069A88183246294615
:103B6000FBF7A0FB73E02368069AC2F5807107AAF1
:103B7000DDF818C002EB0C002A46FCF723F90646D4
:103B800065E0606800902368069AC2F5807107AA14
:103B9000DDF818C002EB0C002A46FCF713F90646C4
:103BA00055E0D4E90101CDE900012368069AC2F588
:103BB000807107AADDF818C002EB0C002A46FCF75A
:103BC00001F9064643E0D4E902216068CDE901210C
:103BD00000902368069AC2F5807107AADDF818C024
:103BE00002EB0C002A46FCF7EDF806462FE0D4E97C
:103BF0000123D4E90310CDE90023CDE902102368A5
:103C0000069AC2F5807107AADDF818C002EB0C0015
:103C10002A46FCF7D7F8064619E017E0D4E9022354
:103C2000D4E90410CDE90123CDE9031060680090C8
:103C30002368069AC2F5807107AADDF818C002EB66
:103C40000C002A46FCF7BEF8064600E000BF00BFA5
:103C5000314606A8FDF7CFFE8246DDF81890BAF18E
:103C6000000F07D0B9F5807F04D807A8069901F0A6
:103C700063F952E7002050E700487047F73A020026
:103C80002DE9F84307460C4615461E464FF000093D
:103C9000C846054800962B4622464146D0F814C037
:103CA0003846E047BDE8F883B83B002030B503460E
:103CB0000C4615462146184600F028F830BD70B570
:103CC00004460D4600231A4629462046FFF7D8FF32
:103CD00070BDF8B505460E461446009401236A46A9
:103CE00031462846FFF7CCFFF8BD2DE9FC410646DA
:103CF0000F4614461D460094019502236A46394634
:103D00003046FFF7BDFFBDE8FC810000014A50616D
:103D100091617047B83B00202DE9F041054600BF96
:103D20000120FFF7F5FD04464CB9FFF7EDFD06460F
:103D3000FFF7A2FF07462A463146FFF7B7FF2046A6
:103D4000BDE8F08101218140014A11607047000007
:103D500008F50140024A1060121D11607047000012
:103D60002C76004010B50A7802F003024B7830241C
:103D700004EA03131A438B784FF4E06404EA032344
:103D80001A43CB784FF4805404EA03331A430B7977
:103D90004FF4E02404EA03431A434B794FF48014B0
:103DA00004EA03531A438B79240104EA036313439F
:103DB000074A02EB00129360CA790B7A044C04EBB9
:103DC00000146360024C04EB0014226000BF10BDBD
:103DD00010750040044B03EB00135A60024B03EBD9
:103DE0000013196070470000107500400146034839
:103DF000085808B1012070470020FCE7007000401F
:103E000008B50021034A815011464158009100BF76
:103E100008BD0000007000400149086070470000C4
:103E200008730040014908607047000004730040B7
:103E3000024609B9802000E040200346500003FA02
:103E400000F070470121014A815070470070004026
:103E500001464FF4A07000EB810080B2704701462C
:103E60004FF480308840704708B5002242504258D5
:103E7000009200BF08BDC0F808137047C0F80413D3
:103E80007047D0F800228A43C0F800227047012210
:103E9000425070470146D1F88004C1F88004704751
:103EA0000246505808B1012070470020FCE708B5D1
:103EB000002242504258009200BF08BDC0F80815C9
:103EC000C0F810257047C0F808137047C0F80413F5
:103ED00070470246D2F80403084008B10120704739
:103EE0000020FCE7012242507047C0F81425C0F8BA
:103EF0000C1570470146D1F88004C1F88004704762
:103F00000246505808B1012070470020FCE708B570
:103F1000002242504258009200BF08BDC0F8081568
:103F20004FF4A2631A507047C0F808137047C0F8E6
:103F300004137047014640F23C504058704701223C
:103F40004250704740F20C53195040F214531A502B
:103F5000704700002DE9F04106460C461746052241
:103F600011A12046FBF7C9F940B911A10320FFF7C1
:103F7000A6FE00F0D1FD00F0AFFE13E0032210A179
:103F80002046FBF7BAF968B90EA10320FFF797FEA8
:103F900003220BA10F48FDF7FCF8054600F07EFE5A
:103FA000FFF76EF8BDE8F081424547494E0000003A
:103FB0004150503A494E464F3A424547494E00001B
:103FC000454E44004150503A494E464F3A454E44C2
:103FD000000000001833002070B5054695B1032D90
:103FE00013D10220FDF72EFB044600BF26463EB14A
:103FF00000BF07A24FF4C7713046FCF711FB00BFAA
:1040000000BF03E001F0C4F800E000BF00BF70BDD6
:104010002E2E5C2E2E5C2E2E5C6D61696E2E630042
:1040200070B588B0054628883B2874D00CDC112870
:104030002BD004DC01286FD010286ED10DE013289E
:1040400040D02128F9D151E0512867D0522866D0BC
:10405000562878D05728F0D176E00720FDF7F2FAFD
:10406000044600BF26463EB100BF6EA240F2A51135
:104070003046FCF7D5FA00BF00BFA8886D4908801C
:104080006DA10320FFF71BFEC9E00020FDF7DAFA5F
:10409000044600BF26463EB100BF62A240F2AD1109
:1040A0003046FCF7BDFA00BF00BF4FF6FF70614914
:1040B000088000F0F3FDFEF7E3FF65A10320FFF7A2
:1040C000FEFDACE000231A4685215A4800887FDFB8
:1040D000044600BF26463EB100BF52A240F2B911CD
:1040E0003046FCF79DFA00BF00BF98E00020069024
:1040F0000790A888002206A98FDF044600BF264645
:104100003EB100BF47A240F2C3113046FCF788FA27
:1041100000BF00BF83E01BE03CE07FE04BE00023FA
:104120001A46194643480088A9DF044600BF2646C0
:104130003EB100BF3BA240F2C9113046FCF770FA15
:1041400000BF00BF6BE014E000204749087066E044
:10415000A888132176DF044600BF26463EB100BF83
:1041600030A240F2D5113046FCF75AFA00BF00BF2A
:1041700055E0A888132176DF044600BF26463EB1ED
:1041800000BF28A24FF4EE713046FCF749FA00BF99
:1041900000BF44E0A888002166DF044600BF264631
:1041A0003EB100BF1FA240F2E1113046FCF738FAE1
:1041B00000BF00BF33E01022A91D04A8FBF772F86E
:1041C0009DF8100048B39DF81800042807D09DF80A
:1041D0001800062803D09DF8180005281DD19DF869
:1041E0001000022802D18DF8000002E001208DF8B5
:1041F00000004FF4C170ADF80400A8886946A8DF3C
:10420000044600BF26463EB100BF06A24FF4FE7131
:104210003046FCF705FA00BF00BF00E000BF00BF5A
:1042200008B070BD2E2E5C2E2E5C2E2E5C6D61694A
:104230006E2E6300283200204150503A494E464FBE
:104240003A436F6E6E65637465640D0A000000008A
:104250004150503A494E464F3A446973636F6E6E0F
:1042600065637465640D0A003832002070B5054638
:10427000287880B93B210848008876DF044600BFD3
:1042800026463EB100BF05A240F247113046FCF77A
:10429000C7F900BF00BF70BD283200202E2E5C2E53
:1042A0002E5C2E2E5C6D61696E2E630010B5044687
:1042B0000349A2680A60E0684860FDF7DBFC10BDB6
:1042C000AC32002010B50446A0880849088008498F
:1042D00022690A6060694860002006490870064843
:1042E000C08908B9FDF7C6FC10BD0000AA32002045
:1042F000AC320020A8320020F43700208A88828265
:1043000070470000C17B012902D18188014A1180D8
:1043100070470000923200202DE9F04105460F461B
:10432000B7F80480A81D00EBC8042879A071F87BB9
:10433000012802D0022806D102E02888208003E06C
:104340006888208000E000BF00BF20886188884224
:1043500011DD218840469EDF064616B901206071B6
:1043600009E0112E02D10120207104E032460749F4
:104370000120FFF7AEFCA079E179884203DD2946F0
:104380004046FDF7E3FCBDE8F0810000C06102009B
:1043900070B590B004460E463422311D03A8FAF7DA
:1043A00081FFBDF80C50BDF81000C1B2A01D00EB9C
:1043B000C500C171A06980B1094903C9CDE90101F6
:1043C000ADF80650A01D00EBC500C0798DF80800BF
:1043D00001A92046A269904700BF10B070BD00003F
:1043E000D45F02002DE9FC4706460F4600200090EE
:1043F00001903D1D2988B01D00EBC10895F804A06F
:1044000098F80600504502DA98F8060000E0504699
:104410008146ADF80090ADF80290288800226946E8
:104420008FDF044624B1224602490120FFF751FCE8
:10443000BDE8FC877462020070B505464FF6FF7058
:104440000949088000200949087009480068FCF7FC
:10445000E3F9044634B10748806918B10548816919
:104460002046884770BD0000AA320020A8320020F4
:10447000C05F0200F43700204FF6FF72828270475F
:1044800070B5054600200A490870A88809490988BE
:1044900088420BD10120FCF7ABFC044634B106483E
:1044A000006818B1204604490968884770BD0000BB
:1044B0009C320020923200209832002070B50446D1
:1044C0000D46AA88A11D01EBC200FEF741F870BDA0
:1044D0002DE9FC4705460F46B7F80480B7F806906B
:1044E000A81D00EBC804B9F1170F01DA172000E08E
:1044F000484681462088484501DD484600E020883E
:1045000060800020207121884046ADDF064626B13C
:1045100032460D490120FFF7DCFB607908B1BDE8A8
:10452000FC87A86968B1094903C9CDE90001ADF864
:1045300002806088ADF8040069462846AA69904761
:1045400000BF00BFEBE700001C620200CC5F02006E
:104550002DE9FC4105460E46B788B6F80A80A81D2D
:1045600000EBC7042088404501DD404600E020887C
:1045700060806088172801DA172000E0608860807A
:10458000A86978B1607968B1094903C9CDE900012A
:10459000ADF802706088ADF8040069462846AA6943
:1045A000904700BF002060712071BDE8FC810000D1
:1045B000C45F020070B50546287A00B170BD094895
:1045C0000078FBF791FF0646FCF712FC044634B175
:1045D0000548006818B1204603490968884700BFAC
:1045E000ECE70000833200209832002070B50546C9
:1045F000AC1D20880E49C989884218D160890228DB
:1046000015D104F10C00FCF7EFFD10B1FDF732FB02
:104610000DE008480068FCF7FFF8064636B104488C
:10462000806918B1024881693046884700BF70BD73
:10463000F4370020C05F020070B504460E46B51D79
:104640002988208981420DD1688902280AD105F183
:104650000C00FCF7C9FD10B10120A0750EE0002090
:10466000A0750BE02888A189884207D1A06928B1EC
:104670006A8905F10C012046A369984770BD0000C6
:104680002DE9F04704462079314901EB4010007FC5
:1046900020B3206840F20C510D5800BF206840F252
:1046A00014510E5800BF2068D0F8087500BF20686C
:1046B000D0F8108500BFD4F800904FF0FF321146BB
:1046C0004846FFF73FFC00BFD4F800904FF0FF32A0
:1046D00011464846FFF722FC00BF22E02068D0F8D0
:1046E0000C5500BF2068D0F8146500BF2068D0F8D2
:1046F000087500BF2068D0F8108500BFD4F800907E
:104700004FF0FF3211464846FFF7EFFB00BFD4F8E9
:1047100000904FF0FF3211464846FFF7CFFB00BF35
:1047200000BF681C10B12846FFF73AF8701C10B1A2
:104730003046FFF735F808F1010010B14046FFF7A9
:104740002FF8781C10B13846FFF72AF8BDE8F0873B
:104750009C38002070B53EDF044600BF25463DB1C1
:1047600000BF04A240F229312846FBF759FF00BFE1
:1047700000BF70BD2E2E5C2E2E5C2E2E5C6D6169EE
:104780006E2E63000149086070470000401501402B
:1047900001480068704700000415014010B5044648
:1047A0000348046007211120FAF744FF10BD000000
:1047B0000815014010B54FF480300A4908600A49D5
:1047C000C1F804031120FAF7FBFE1120FAF710FFDD
:1047D0000120054908602F20FEF72AF9012003492E
:1047E000087010BD4413014000100140D632002073
:1047F00010B51120012181400E4A430942F82310CF
:1048000000BF4FF480300C4908600C49C1F8080320
:10481000012048602F20FEF70BF90120074988602E
:104820000020074908602F20FEF702F90020054903
:10483000087010BD80E100E0481301400010014005
:10484000C8320020D632002070B505460C46E07D07
:1048500040B94FF484712846FFF729FB00BFD5F813
:10486000180570BD4FF484712846FFF720FB00BF88
:10487000D5F81805C0B2627EE1688854607E401C9D
:10488000607600BFEDE730B58FB004460D461C21C1
:1048900008A8FAF720FD9DF8200020F00800083055
:1048A0008DF820009DF8200020F00400001D8DF8F8
:1048B0002000002009900B900C900D900E90207815
:1048C0008DF80A000220ADF808000020019000BF1A
:1048D0009DF8040020F00F00401C8DF804009DF8A6
:1048E000040020F0F00010308DF8040000BF00BF7D
:1048F0009DF8050020F00F00401C8DF805009DF884
:10490000050020F0F00010308DF8050000BF9DF884
:10491000060020F00600801C8DF806009DF80600B9
:1049200020F008008DF806009DF8060020F0100029
:104930008DF806009DF8060020F00100401C8DF85F
:104940000600142103A8FAF7C6FC02A8039001A8E8
:1049500004900120ADF814000020ADF816009B2053
:10496000ADF81800608804F10C0303AA08A9A2DFBF
:104970000FB030BD7FB504460D46164601208DF8B8
:1049800000008DF8085001966846D4E9001290475F
:104990007FBD10B504464FF492712068FFF787FA87
:1049A0004FF484712068FFF782FA00212068FFF736
:1049B00099FA10BD2DE9F0418AB0064630780028FA
:1049C00079D104217068FEF7D1F9054600BF2C4665
:1049D0003CB100BF39A240F263312046FBF720FE14
:1049E00000BF00BF3948016839A0FBF7DBF900249C
:1049F00012E0706830F914103BA0FBF7D3F970682F
:104A000010F8147008A800F814703812012101EB96
:104A1000440108AA5054641C042CEADB9DF82000D1
:104A2000334908609DF82200324908609DF824004F
:104A3000314908609DF82600304908600846007832
:104A40002D490978CDE900102A48037828480278D2
:104A50002BA103A8FBF7CEF903A8FAF747FC14280B
:104A600005D803A8FAF742FC00F0FF0801E04FF078
:104A70001408424603A92648FCF78BFB0546132D74
:104A800005D10120234908700AB0BDE8F081082D46
:104A90000BD000BF2C463CB100BF08A240F2A331AE
:104AA0002046FBF7BDFD00BF00BF08480068401C62
:104AB0000649086000BF00BFE6E700002E2E5C2E0E
:104AC0002E5C2E2E5C6D61696E2E630034320020E8
